{
  "_format": "hh-sol-artifact-1",
  "contractName": "WavePortal",
  "sourceName": "contracts/WavePortal.sol",
  "abi": [
    {
      "inputs": [],
      "stateMutability": "nonpayable",
      "type": "constructor"
    },
    {
      "anonymous": false,
      "inputs": [
        {
          "indexed": true,
          "internalType": "address",
          "name": "from",
          "type": "address"
        },
        {
          "indexed": false,
          "internalType": "uint256",
          "name": "timestamp",
          "type": "uint256"
        },
        {
          "indexed": false,
          "internalType": "string",
          "name": "message",
          "type": "string"
        }
      ],
      "name": "NewWave",
      "type": "event"
    },
    {
      "inputs": [],
      "name": "GetTotalWaves",
      "outputs": [
        {
          "internalType": "uint256",
          "name": "",
          "type": "uint256"
        }
      ],
      "stateMutability": "view",
      "type": "function"
    },
    {
      "inputs": [
        {
          "internalType": "address",
          "name": "addr",
          "type": "address"
        }
      ],
      "name": "GetWaveCountfromPerson",
      "outputs": [
        {
          "internalType": "uint256",
          "name": "",
          "type": "uint256"
        }
      ],
      "stateMutability": "view",
      "type": "function"
    },
    {
      "inputs": [
        {
          "internalType": "string",
          "name": "_message",
          "type": "string"
        }
      ],
      "name": "Wave",
      "outputs": [],
      "stateMutability": "nonpayable",
      "type": "function"
    },
    {
      "inputs": [],
      "name": "getAllwaves",
      "outputs": [
        {
          "components": [
            {
              "internalType": "address",
              "name": "waver",
              "type": "address"
            },
            {
              "internalType": "string",
              "name": "message",
              "type": "string"
            },
            {
              "internalType": "uint256",
              "name": "timestamp",
              "type": "uint256"
            }
          ],
          "internalType": "struct WavePortal.wave[]",
          "name": "",
          "type": "tuple[]"
        }
      ],
      "stateMutability": "view",
      "type": "function"
    }
  ],
  "bytecode": "0x60806040523480156200001157600080fd5b506200005d6040518060400160405280600681526020017f796f20796f2000000000000000000000000000000000000000000000000000008152506200006360201b620005071760201c565b620001f7565b62000103816040516024016200007a919062000170565b6040516020818303038152906040527f41304fac000000000000000000000000000000000000000000000000000000007bffffffffffffffffffffffffffffffffffffffffffffffffffffffff19166020820180517bffffffffffffffffffffffffffffffffffffffffffffffffffffffff83818316178352505050506200010660201b60201c565b50565b60008151905060006a636f6e736f6c652e6c6f679050602083016000808483855afa5050505050565b60006200013c8262000194565b6200014881856200019f565b93506200015a818560208601620001b0565b6200016581620001e6565b840191505092915050565b600060208201905081810360008301526200018c81846200012f565b905092915050565b600081519050919050565b600082825260208201905092915050565b60005b83811015620001d0578082015181840152602081019050620001b3565b83811115620001e0576000848401525b50505050565b6000601f19601f8301169050919050565b610eaf80620002076000396000f3fe608060405234801561001057600080fd5b506004361061004c5760003560e01c80635bc7ec18146100515780636022de541461006f57806394cf8f931461008b578063e0b75290146100bb575b600080fd5b6100596100d9565b6040516100669190610b93565b60405180910390f35b610089600480360381019061008491906108e9565b610124565b005b6100a560048036038101906100a091906108c0565b6102ee565b6040516100b29190610b93565b60405180910390f35b6100c36103b6565b6040516100d09190610ab1565b60405180910390f35b600061011c6040518060400160405280601a81526020017f5765206861766520746f74616c206f66202564207761766573200000000000008152506000546105a0565b600054905090565b60008081548092919061013690610d7b565b919050555061017a6040518060400160405280600c81526020017f25732068617320776176656400000000000000000000000000000000000000008152503361063c565b600160003373ffffffffffffffffffffffffffffffffffffffff1673ffffffffffffffffffffffffffffffffffffffff16815260200190815260200160002060008154809291906101ca90610d7b565b9190505550600260405180606001604052803373ffffffffffffffffffffffffffffffffffffffff16815260200183815260200142815250908060018154018082558091505060019003906000526020600020906003020160009091909190915060008201518160000160006101000a81548173ffffffffffffffffffffffffffffffffffffffff021916908373ffffffffffffffffffffffffffffffffffffffff160217905550602082015181600101908051906020019061028e9291906107a0565b506040820151816002015550503373ffffffffffffffffffffffffffffffffffffffff167f5f7e16dc676677766a70e9c5628aa6c54ddb8b6e5188e2ae1e1f17f1ffbea71642836040516102e3929190610bae565b60405180910390a250565b600061036f6040518060400160405280601f81526020017f546f74616c2077617665732025642066726f6d20616464726573732025732000815250600160008573ffffffffffffffffffffffffffffffffffffffff1673ffffffffffffffffffffffffffffffffffffffff16815260200190815260200160002054846106d8565b600160008373ffffffffffffffffffffffffffffffffffffffff1673ffffffffffffffffffffffffffffffffffffffff168152602001908152602001600020549050919050565b60606002805480602002602001604051908101604052809291908181526020016000905b828210156104fe57838290600052602060002090600302016040518060600160405290816000820160009054906101000a900473ffffffffffffffffffffffffffffffffffffffff1673ffffffffffffffffffffffffffffffffffffffff1673ffffffffffffffffffffffffffffffffffffffff16815260200160018201805461046390610d18565b80601f016020809104026020016040519081016040528092919081815260200182805461048f90610d18565b80156104dc5780601f106104b1576101008083540402835291602001916104dc565b820191906000526020600020905b8154815290600101906020018083116104bf57829003601f168201915b50505050508152602001600282015481525050815260200190600101906103da565b50505050905090565b61059d8160405160240161051b9190610ad3565b6040516020818303038152906040527f41304fac000000000000000000000000000000000000000000000000000000007bffffffffffffffffffffffffffffffffffffffffffffffffffffffff19166020820180517bffffffffffffffffffffffffffffffffffffffffffffffffffffffff8381831617835250505050610777565b50565b61063882826040516024016105b6929190610b25565b6040516020818303038152906040527f9710a9d0000000000000000000000000000000000000000000000000000000007bffffffffffffffffffffffffffffffffffffffffffffffffffffffff19166020820180517bffffffffffffffffffffffffffffffffffffffffffffffffffffffff8381831617835250505050610777565b5050565b6106d48282604051602401610652929190610af5565b6040516020818303038152906040527f319af333000000000000000000000000000000000000000000000000000000007bffffffffffffffffffffffffffffffffffffffffffffffffffffffff19166020820180517bffffffffffffffffffffffffffffffffffffffffffffffffffffffff8381831617835250505050610777565b5050565b6107728383836040516024016106f093929190610b55565b6040516020818303038152906040527fe3849f79000000000000000000000000000000000000000000000000000000007bffffffffffffffffffffffffffffffffffffffffffffffffffffffff19166020820180517bffffffffffffffffffffffffffffffffffffffffffffffffffffffff8381831617835250505050610777565b505050565b60008151905060006a636f6e736f6c652e6c6f679050602083016000808483855afa5050505050565b8280546107ac90610d18565b90600052602060002090601f0160209004810192826107ce5760008555610815565b82601f106107e757805160ff1916838001178555610815565b82800160010185558215610815579182015b828111156108145782518255916020019190600101906107f9565b5b5090506108229190610826565b5090565b5b8082111561083f576000816000905550600101610827565b5090565b600061085661085184610c03565b610bde565b90508281526020810184848401111561086e57600080fd5b610879848285610cd6565b509392505050565b60008135905061089081610e62565b92915050565b600082601f8301126108a757600080fd5b81356108b7848260208601610843565b91505092915050565b6000602082840312156108d257600080fd5b60006108e084828501610881565b91505092915050565b6000602082840312156108fb57600080fd5b600082013567ffffffffffffffff81111561091557600080fd5b61092184828501610896565b91505092915050565b60006109368383610a43565b905092915050565b61094781610c9a565b82525050565b61095681610c9a565b82525050565b600061096782610c44565b6109718185610c67565b93508360208202850161098385610c34565b8060005b858110156109bf57848403895281516109a0858261092a565b94506109ab83610c5a565b925060208a01995050600181019050610987565b50829750879550505050505092915050565b60006109dc82610c4f565b6109e68185610c78565b93506109f6818560208601610ce5565b6109ff81610e51565b840191505092915050565b6000610a1582610c4f565b610a1f8185610c89565b9350610a2f818560208601610ce5565b610a3881610e51565b840191505092915050565b6000606083016000830151610a5b600086018261093e565b5060208301518482036020860152610a7382826109d1565b9150506040830151610a886040860182610a93565b508091505092915050565b610a9c81610ccc565b82525050565b610aab81610ccc565b82525050565b60006020820190508181036000830152610acb818461095c565b905092915050565b60006020820190508181036000830152610aed8184610a0a565b905092915050565b60006040820190508181036000830152610b0f8185610a0a565b9050610b1e602083018461094d565b9392505050565b60006040820190508181036000830152610b3f8185610a0a565b9050610b4e6020830184610aa2565b9392505050565b60006060820190508181036000830152610b6f8186610a0a565b9050610b7e6020830185610aa2565b610b8b604083018461094d565b949350505050565b6000602082019050610ba86000830184610aa2565b92915050565b6000604082019050610bc36000830185610aa2565b8181036020830152610bd58184610a0a565b90509392505050565b6000610be8610bf9565b9050610bf48282610d4a565b919050565b6000604051905090565b600067ffffffffffffffff821115610c1e57610c1d610e22565b5b610c2782610e51565b9050602081019050919050565b6000819050602082019050919050565b600081519050919050565b600081519050919050565b6000602082019050919050565b600082825260208201905092915050565b600082825260208201905092915050565b600082825260208201905092915050565b6000610ca582610cac565b9050919050565b600073ffffffffffffffffffffffffffffffffffffffff82169050919050565b6000819050919050565b82818337600083830152505050565b60005b83811015610d03578082015181840152602081019050610ce8565b83811115610d12576000848401525b50505050565b60006002820490506001821680610d3057607f821691505b60208210811415610d4457610d43610df3565b5b50919050565b610d5382610e51565b810181811067ffffffffffffffff82111715610d7257610d71610e22565b5b80604052505050565b6000610d8682610ccc565b91507fffffffffffffffffffffffffffffffffffffffffffffffffffffffffffffffff821415610db957610db8610dc4565b5b600182019050919050565b7f4e487b7100000000000000000000000000000000000000000000000000000000600052601160045260246000fd5b7f4e487b7100000000000000000000000000000000000000000000000000000000600052602260045260246000fd5b7f4e487b7100000000000000000000000000000000000000000000000000000000600052604160045260246000fd5b6000601f19601f8301169050919050565b610e6b81610c9a565b8114610e7657600080fd5b5056fea2646970667358221220c4fb0b3973983abebcb8881166932aaa20ccc9e7b3c14714dc4986a254b0a86664736f6c63430008040033",
  "linkReferences": {},
  "deployedLinkReferences": {}
}